:100000000C9434000C943E000C943E000C943E0082
:100010000C943E000C943E000C943E000C943E0068
:100020000C943E000C943E000C943E000C943E0058
:100030000C943E000C943E000C943E000C943E0048
:100040000C943E000C943E000C943E000C943E0038
:100050000C943E000C943E000C943E000C943E0028
:100060000C943E000C943E0011241FBECFEFD8E04C
:10007000DEBFCDBF0E94B4000C94A9010C94000017
:100080004598429808954398459844982A984098EE
:100090000895439845984498429840980895419807
:1000A00044984598429808954398419844984298B6
:1000B00040980895439841984498429840982A98C7
:1000C00008954398459842980895419843984598D3
:1000D00044982A98409842980895419843984598A2
:1000E0004498429808954198439845982A98429890
:1000F00040980895459A429A0895439A459A449A99
:100100002A9A409A0895439A459A449A429A409A64
:100110000895419A449A459A429A0895439A419A79
:10012000449A429A409A0895439A419A449A429A2C
:10013000409A2A9A0895439A459A429A0895419A74
:10014000439A459A449A2A9A409A429A0895419A23
:10015000439A459A449A429A0895419A439A459AF5
:100160002A9A429A409A0895509A3D9A3C9A3A9A0D
:100170003B9A399A229A389A409A429A2A9A449AF1
:10018000459A439A419A589A41988FE19EE4019783
:10019000F1F700C0000043988FE19EE40197F1F76A
:1001A00000C0000045988FE19EE40197F1F700C080
:1001B000000044988FE19EE40197F1F700C0000031
:1001C0002A988FE19EE40197F1F700C00000409863
:1001D0008FE19EE40197F1F700C0000042988FE1A3
:1001E0009EE40197F1F700C00000419A8FE19EE480
:1001F0000197F1F700C00000439A8FE19EE4019758
:10020000F1F700C00000459A8FE19EE40197F1F7F5
:1002100000C00000449A8FE19EE40197F1F700C00E
:1002200000002A9A8FE19EE40197F1F700C00000D8
:10023000409A8FE19EE40197F1F700C00000429AD6
:100240008FE19EE40197F1F700C000000E9440009A
:100250009FEF20E782E0915020408040E1F700C00E
:1002600000000E947A000E9443009FEF20E782E096
:10027000915020408040E1F700C000000E947D00C6
:100280000E9449009FEF20E782E09150204080408B
:10029000E1F700C000000E9483000E944F009FEF22
:1002A00020E782E0915020408040E1F700C000004C
:1002B0000E9489000E9454009FEF20E782E0915045
:1002C00020408040E1F700C000000E948E000E94A4
:1002D0005A009FEF20E782E0915020408040E1F7F4
:1002E00000C000000E9494000E9461009FEF20E780
:1002F00082E0915020408040E1F700C000000E9461
:100300009B000E9465009FEF20E782E09150204013
:100310008040E1F700C000000E949F000E946D0035
:100320009FEF20E782E0915020408040E1F700C03D
:1003300000000E94A7000E9473009FEF20E782E068
:10034000915020408040E1F700C000000E94AD00C5
:060350001BCFF894FFCF63
:00000001FF
