:100000000C943E000C945B000C945B000C945B0021
:100010000C945B000C945B000C945B000C945B00F4
:100020000C945B000C945B000C945B000C94A90294
:100030000C945B000C945B000C945B000C945B00D4
:100040000C945B000C945B000C945B000C945B00C4
:100050000C945B000C945B000C945B000C945B00B4
:100060000C945B000C945B006702590177019501C9
:10007000B301D101EF010D022B02490211241FBE71
:10008000CFEFD8E0DEBFCDBF11E0A0E0B1E0E4ECFF
:10009000F6E002C005900D92A230B107D9F721E039
:1000A000A2E0B1E001C01D92AA31B207E1F70E94BF
:1000B0005D000C9460030C940000509A519A529A7F
:1000C000539A559A569A579A3D9A3C9A3A9A3B9A1D
:1000D000399A229A389A409A429A2A9A449A459A88
:1000E000439A419A589859985A985B98E1E8F0E0F9
:1000F000808188608083AFE6B0E08C9182608C93D1
:10010000789484EF91E090938900809388008081B7
:1001100082608083FFCF4598429808954398459820
:1001200044982A984098089543984598449842984E
:100130004098089541984498459842980895439866
:10014000419844984298409808954398419844981B
:10015000429840982A98089543984598429808955F
:1001600041984398459844982A9840984298089511
:1001700041984398459844984298089541984398E7
:1001800045982A98429840980895459A429A089529
:10019000439A459A449A2A9A409A0895439A459ACE
:1001A000449A429A409A0895419A449A459A429AAA
:1001B0000895439A419A449A429A409A0895439ADC
:1001C000419A449A429A409A2A9A0895439A459AA3
:1001D000429A0895419A439A459A449A2A9A409A93
:1001E000429A0895419A439A459A449A429A0895A8
:1001F000419A439A459A2A9A429A409A0895409180
:100200000E0150910F01209110013091110124171E
:1002100035070CF49DC120910C0130910D014091E6
:10022000000150910101421753070CF491C1232B97
:1002300011F4589A01C0589820910C0130910D0189
:100240002130310511F4599A01C0599820910C01BF
:1002500030910D012230310511F45A9A01C05A989B
:1002600020910C0130910D012330310511F45B9A7E
:1002700001C05B98E0910E01F0910F01EE0FFF1F9E
:10028000EE0FFF1FEE0FFF1FE80FF91F20910C016B
:1002900030910D01220F331FE20FF31F0190F08107
:1002A000E02DEA30F10508F030C1EC5CFF4F0C9412
:1002B0005A030E94C8000E94CE000E94D4000E94EF
:1002C000D9000E94DF000E94E6000E94EA000E941E
:1002D000F2000E94F8000E948B0080910C01909126
:1002E0000D01019690930D0180930C0122C10E9493
:1002F000C5000E94CE000E94D4000E94D9000E9436
:10030000DF000E94E6000E94EA000E94F2000E94C4
:10031000F8000E948E0080910C0190910D010196D1
:1003200090930D0180930C0104C10E94C8000E94AB
:10033000C5000E94D4000E94D9000E94DF000E94E4
:10034000E6000E94EA000E94F2000E94F8000E946B
:10035000940080910C0190910D01019690930D01F4
:1003600080930C01E6C00E94C8000E94CE000E944B
:10037000C5000E94D9000E94DF000E94E6000E9492
:10038000EA000E94F2000E94F8000E949A00809108
:100390000C0190910D01019690930D0180930C0139
:1003A000C8C00E94C8000E94CE000E94D4000E94D3
:1003B000C5000E94DF000E94E6000E94EA000E9441
:1003C000F2000E94F8000E949F0080910C01909121
:1003D0000D01019690930D0180930C01AAC00E941B
:1003E000C8000E94CE000E94D4000E94D9000E9442
:1003F000C5000E94E6000E94EA000E94F2000E94EE
:10040000F8000E94A50080910C0190910D010196C9
:1004100090930D0180930C018CC00E94C8000E9433
:10042000CE000E94D4000E94D9000E94DF000E94EA
:10043000C5000E94EA000E94F2000E94F8000E949B
:10044000AC0080910C0190910D01019690930D01EB
:1004500080930C016EC00E94C8000E94CE000E94D2
:10046000D4000E94D9000E94DF000E94E6000E9492
:10047000C5000E94F2000E94F8000E94B000809126
:100480000C0190910D01019690930D0180930C0148
:1004900050C00E94C8000E94CE000E94D4000E945A
:1004A000D9000E94DF000E94E6000E94EA000E943C
:1004B000C5000E94F8000E94B80080910C01909144
:1004C0000D01019690930D0180930C0132C00E94A2
:1004D000C8000E94CE000E94D4000E94D9000E9451
:1004E000DF000E94E6000E94EA000E94F2000E94E3
:1004F000C5000E94BE0080910C0190910D010196F3
:1005000090930D0180930C0114C00E94F8000E948A
:10051000C5000E94C8000E94CE000E94D4000E9424
:10052000D9000E94DF000E94E6000E94EA000E94BB
:10053000F20020910C0130910D0180910001909109
:1005400001018217930724F410920D0110920C01FF
:1005500008951F920F920FB60F9211242F933F937D
:100560004F935F936F937F938F939F93AF93BF93BB
:10057000EF93FF9382E191E00E94FF004091080118
:1005800050910901E2E1F1E0578346832091060191
:100590003091070135832483609104017091050136
:1005A0007383628380910201909103019183808320
:1005B0004A30510554F010920901109208012F5F42
:1005C0003F4F30930701209306012091060130919F
:1005D000070125303105A9F4209108013091090166
:1005E0002930310571F41092070110920601109222
:1005F0000901109208016F5F7F4F709305016093AE
:10060000040120910401309105012A3031054CF09C
:1006100010920501109204010196909303018093BA
:10062000020180910201909103010297D1F480911F
:100630000401909105010497A1F480910601909125
:100640000701892B71F48091080190910901892B90
:1006500041F41092050110920401109203011092CE
:10066000020180910A0190910B01019690930B0178
:1006700080930A010A976CF080910801909109011A
:100680000196909309018093080110920B0110923A
:100690000A01FF91EF91BF91AF919F918F917F914F
:1006A0006F915F914F913F912F910F900FBE0F90DF
:1006B0001F901895EE0FFF1F0590F491E02D0994FF
:0406C000F894FFCFDC
:0206C400030031
:00000001FF
