:100000000C9434000C943E000C943E000C943E0082
:100010000C943E000C943E000C943E000C943E0068
:100020000C943E000C943E000C943E000C94760020
:100030000C943E000C943E000C943E000C943E0048
:100040000C943E000C943E000C943E000C943E0038
:100050000C943E000C943E000C943E000C943E0028
:100060000C943E000C943E0011241FBECFEFD8E04C
:10007000DEBFCDBF0E9440000C94AA000C9400008B
:10008000509A519A529A539A559A569A579A3D9A1B
:100090003C9A3A9A3B9A399A229A389A409A429ACA
:1000A0002A9A449A459A439A419A5D985E985F9835
:1000B000E1E8F0E0808188608083AFE6B0E08C9179
:1000C00082608C93789488E391E090938900809388
:1000D0008800808183608083FFCF98B180E2892788
:1000E00088B998B184E0892788B908951F920F9242
:1000F0000FB60F9211242F933F934F935F936F93FB
:100100007F938F939F93AF93BF93EF93FF939BB195
:1001100081E089278BB99BB182E089278BB99BB19C
:1001200084E089278BB99BB188E089278BB90E942D
:100130006D00FF91EF91BF91AF919F918F917F9152
:100140006F915F914F913F912F910F900FBE0F9044
:080150001F901895F894FFCFF1
:00000001FF
