S0250000345F64696769745F736576656E5F7365676D656E745F646973706C61792E7372656334
S11300000C9434000C943E000C943E000C943E007E
S11300100C943E000C943E000C943E000C943E0064
S11300200C943E000C943E000C943E000C946E0024
S11300300C943E000C943E000C943E000C943E0044
S11300400C943E000C943E000C943E000C943E0034
S11300500C943E000C943E000C943E000C943E0024
S11300600C943E000C943E0011241FBECFEFD8E048
S1130070DEBFCDBF0E9440000C9478000C940000B9
S1130080509A519A529A539A559A569A579A3D9A17
S11300903C9A3A9A3B9A399A229A389A409A429AC6
S11300A02A9A449A459A439A419A589859985A9840
S11300B05B98E1E8F0E0808188608083AFE6B0E09F
S11300C08C9182608C93789488E391E0909389007A
S11300D080938800808183608083FFCF1F920F927A
S11300E00FB60F9211240F900FBE0F901F9018950A
S10700F0F894FFCFAE
S9030000FC
