:100000000C943E000C945B000C945B000C945B0021
:100010000C945B000C945B000C945B000C945B00F4
:100020000C945B000C945B000C945B000C949C02A1
:100030000C945B000C945B000C945B000C945B00D4
:100040000C945B000C945B000C945B000C945B00C4
:100050000C945B000C945B000C945B000C945B00B4
:100060000C945B000C945B005F0251016F018D01E9
:10007000AB01C901E70105022302410211241FBEA1
:10008000CFEFD8E0DEBFCDBF11E0A0E0B1E0E2ED00
:10009000F5E002C005900D92A032B107D9F721E03A
:1000A000A0E2B1E001C01D92A632B207E1F70E94C2
:1000B0005D000C94E7020C940000509A519A529AF9
:1000C000539A559A569A579A3D9A3C9A3A9A3B9A1D
:1000D000399A229A389A409A429A2A9A449A459A88
:1000E000439A419A589859985A985B98E1E8F0E0F9
:1000F000808188608083AFE6B0E08C9182608C93D1
:1001000078948FE190E090938900809388008081BB
:1001100083608083FFCF459842980895439845981F
:1001200044982A984098089543984598449842984E
:100130004098089541984498459842980895439866
:10014000419844984298409808954398419844981B
:10015000429840982A98089543984598429808955F
:1001600041984398459844982A9840984298089511
:1001700041984398459844984298089541984398E7
:1001800045982A98429840980895459A429A089529
:10019000439A459A449A2A9A409A0895439A459ACE
:1001A000449A429A409A0895419A449A459A429AAA
:1001B0000895439A419A449A429A409A0895439ADC
:1001C000419A449A429A409A2A9A0895439A459AA3
:1001D000429A0895419A439A459A449A2A9A409A93
:1001E000429A0895419A439A459A449A429A0895A8
:1001F000419A439A459A2A9A429A409A08952091A0
:10020000240130912501243031050CF094C1209156
:10021000220130912301243031050CF08CC1232BB5
:1002200011F4589A01C0589820912201309123016D
:100230002130310511F4599A01C0599820912201B9
:10024000309123012230310511F45A9A01C05A9895
:1002500020912201309123012330310511F45B9A62
:1002600001C05B98E0912401F0912501EE0FFF1F82
:10027000EE0FFF1FEE0FFF1FE80FF91F2091220165
:1002800030912301220F331FE20FF31F0190F08101
:10029000E02DEA30F10508F030C1EC5CFF4F0C9422
:1002A000E1020E94C8000E94CE000E94D4000E9479
:1002B000D9000E94DF000E94E6000E94EA000E942E
:1002C000F2000E94F8000E948B0080912201909120
:1002D00023010196909323018093220122C10E9461
:1002E000C5000E94CE000E94D4000E94D9000E9446
:1002F000DF000E94E6000E94EA000E94F2000E94D5
:10030000F8000E948E0080912201909123010196B5
:10031000909323018093220104C10E94C8000E948F
:10032000C5000E94D4000E94D9000E94DF000E94F4
:10033000E6000E94EA000E94F2000E94F8000E947B
:1003400094008091220190912301019690932301C2
:1003500080932201E6C00E94C8000E94CE000E9445
:10036000C5000E94D9000E94DF000E94E6000E94A2
:10037000EA000E94F2000E94F8000E949A00809118
:1003800022019091230101969093230180932201F1
:10039000C8C00E94C8000E94CE000E94D4000E94E3
:1003A000C5000E94DF000E94E6000E94EA000E9451
:1003B000F2000E94F8000E949F008091220190911B
:1003C000230101969093230180932201AAC00E94E9
:1003D000C8000E94CE000E94D4000E94D9000E9452
:1003E000C5000E94E6000E94EA000E94F2000E94FE
:1003F000F8000E94A50080912201909123010196AE
:1004000090932301809322018CC00E94C8000E9417
:10041000CE000E94D4000E94D9000E94DF000E94FA
:10042000C5000E94EA000E94F2000E94F8000E94AB
:10043000AC008091220190912301019690932301B9
:10044000809322016EC00E94C8000E94CE000E94CC
:10045000D4000E94D9000E94DF000E94E6000E94A2
:10046000C5000E94F2000E94F8000E94B000809136
:100470002201909123010196909323018093220100
:1004800050C00E94C8000E94CE000E94D4000E946A
:10049000D9000E94DF000E94E6000E94EA000E944C
:1004A000C5000E94F8000E94B8008091220190913E
:1004B00023010196909323018093220132C00E9470
:1004C000C8000E94CE000E94D4000E94D9000E9461
:1004D000DF000E94E6000E94EA000E94F2000E94F3
:1004E000C5000E94BE0080912201909123010196D7
:1004F000909323018093220114C00E94F8000E946F
:10050000C5000E94C8000E94CE000E94D4000E9434
:10051000D9000E94DF000E94E6000E94EA000E94CB
:10052000F2008091220190912301049724F010920F
:1005300023011092220108951F920F920FB60F927D
:1005400011242F933F934F935F936F937F938F93D8
:100550009F93AF93BF93EF93FF9380E091E00E944E
:10056000FF0080912001909121010196909321013B
:1005700080932001883E93409CF0809124019091CB
:100580002501019690932501809324011092210169
:1005900010922001049724F010922501109224015A
:1005A000FF91EF91BF91AF919F918F917F916F914B
:1005B0005F914F913F912F910F900FBE0F901F9021
:1005C0001895EE0FFF1F0590F491E02D0994F89413
:0205D000FFCF5B
:1005D2000000000001000100000000000100020014
:1005E20001000000030003000100020003000400F8
:00000001FF
