S0250000345F64696769745F736576656E5F7365676D656E745F646973706C61792E7372656334
S11300000C9434000C943E000C943E000C943E007E
S11300100C943E000C943E000C943E000C943E0064
S11300200C943E000C943E000C943E000C943E0054
S11300300C943E000C943E000C943E000C943E0044
S11300400C943E000C943E000C943E000C943E0034
S11300500C943E000C943E000C943E000C943E0024
S11300600C943E000C943E0011241FBECFEFD8E048
S1130070DEBFCDBF0E9440000C9475000C940000BC
S1130080509A519A529A539A559A569A579A3D9A17
S11300903C9A3A9A3B9A399A229A389A409A429AC6
S11300A02A9A449A459A439A419A5D985E985F9831
S11300B05D9A8BB180588BB92FEF80E792E0215085
S11300C080409040E1F700C000008BB180588BB9AC
S11300D02FEF80E792E0215080409040E1F700C08C
S11100E000005D985F985E9AFFCFF894FFCF02
S9030000FC
