S0250000345F64696769745F736576656E5F7365676D656E745F646973706C61792E7372656334
S11300000C9434000C943E000C943E000C943E007E
S11300100C943E000C943E000C943E000C943E0064
S11300200C943E000C943E000C943E000C943E0054
S11300300C943E000C943E000C943E000C943E0044
S11300400C943E000C943E000C943E000C943E0034
S11300500C943E000C943E000C943E000C943E0024
S11300600C943E000C943E0011241FBECFEFD8E048
S1130070DEBFCDBF0E9440000C94B3000C9400007E
S1130080509A3D9A3C9A3A9A3B9A399A229A389ACB
S1130090409A429A2A9A449A459A439A419A589A7B
S11300A041988FE19EE40197F1F700C00000439866
S11300B08FE19EE40197F1F700C0000045988FE1BD
S11300C09EE40197F1F700C0000044988FE19EE49C
S11300D00197F1F700C000002A988FE19EE4019790
S11300E0F1F700C0000040988FE19EE40197F1F71A
S11300F000C0000042988FE19EE40197F1F700C030
S11301000000419A8FE19EE40197F1F700C00000DE
S1130110439A8FE19EE40197F1F700C00000459AED
S11301208FE19EE40197F1F700C00000449A8FE14B
S11301309EE40197F1F700C000002A9A8FE19EE443
S11301400197F1F700C00000409A8FE19EE4019707
S1130150F1F700C00000429A8FE19EE40197F1F7A5
S10D016000C000009DCFF894FFCF0B
S9030000FC
