S0250000345F64696769745F736576656E5F7365676D656E745F646973706C61792E7372656334
S11300000C943E000C945B000C945B000C945B001D
S11300100C945B000C945B000C945B000C945B00F0
S11300200C945B000C945B000C945B000C94AB028E
S11300300C945B000C945B000C945B000C945B00D0
S11300400C945B000C945B000C945B000C945B00C0
S11300500C945B000C945B000C945B000C945B00B0
S11300600C945B000C945B0069025B0179019701BD
S1130070B501D301F1010F022D024B0211241FBE61
S1130080CFEFD8E0DEBFCDBF11E0A0E0B1E0E4EDFA
S1130090F6E002C005900D92AA30B107D9F721E02D
S11300A0AAE0B1E001C01D92A631B207E1F70E94B7
S11300B05D000C9468030C940000509A519A529A73
S11300C0539A559A569A579A3D9A3C9A3A9A3B9A19
S11300D0399A229A219A389A409A429A2A9A449AA8
S11300E0459A439A419A299A589859985A985B98EC
S11300F0E1E8F0E0808188608083AFE6B0E08C9135
S113010082608C93789480E293E09093890080934A
S11301108800808182608083FFCF4598429808954B
S11301204398459844982A98409808954398459848
S11301304498429840980895419844984598429824
S11301400895439841984498429840980895439854
S113015041984498429840982A980895439845981D
S11301604298089541984398459844982A9840980D
S11301704298089541984398459844984298089520
S11301804198439845982A98429840980895459AEA
S1130190429A0895439A459A449A2A9A409A08950D
S11301A0439A459A449A429A409A0895419A449AA5
S11301B0459A429A0895439A419A449A429A409A97
S11301C00895439A419A449A429A409A2A9A0895E1
S11301D0439A459A429A0895419A439A459A449A71
S11301E02A9A409A429A0895419A439A459A449A7F
S11301F0429A0895419A439A459A2A9A429A409A71
S113020008954091120150911301209114013091ED
S11302101501241735070CF49DC12091100130916C
S113022011014091000150910101421753070CF450
S113023091C1232B11F4589A01C0589820911001B0
S1130240309111012130310511F4599A01C05998A6
S113025020911001309111012230310511F45A9A84
S113026001C05A98209110013091110123303105B9
S113027011F45B9A01C05B98E0911201F0911301B3
S1130280EE0FFF1FEE0FFF1FEE0FFF1FE80FF91F0A
S11302902091100130911101220F331FE20FF31F3F
S11302A00190F081E02DEA30F10508F030C1EC5CFA
S11302B0FF4F0C9462030E94CA000E94D0000E9467
S11302C0D6000E94DB000E94E1000E94E8000E9428
S11302D0EC000E94F4000E94FA000E948D008091BC
S11302E010019091110101969093110180931001D6
S11302F022C10E94C7000E94D0000E94D6000E9422
S1130300DB000E94E1000E94E8000E94EC000E94D1
S1130310F4000E94FA000E949000809110019091D4
S113032011010196909311018093100104C10E9460
S1130330CA000E94C7000E94D6000E94DB000E94EF
S1130340E1000E94E8000E94EC000E94F4000E9478
S1130350FA000E949600809110019091110101967B
S11303609093110180931001E6C00E94CA000E947C
S1130370D0000E94C7000E94DB000E94E1000E949E
S1130380E8000E94EC000E94F4000E94FA000E941F
S11303909C0080911001909111010196909311019C
S11303A080931001C8C00E94CA000E94D0000E941D
S11303B0D6000E94C7000E94E1000E94E8000E944B
S11303C0EC000E94F4000E94FA000E94A1008091B7
S11303D010019091110101969093110180931001E5
S11303E0AAC00E94CA000E94D0000E94D6000E94A7
S11303F0DB000E94C7000E94E8000E94EC000E94FB
S1130400F4000E94FA000E94A700809110019091CC
S11304101101019690931101809310018CC00E94E8
S1130420CA000E94D0000E94D6000E94DB000E94F5
S1130430E1000E94C7000E94EC000E94F4000E94A8
S1130440FA000E94AE008091100190911101019672
S113045090931101809310016EC00E94CA000E9403
S1130460D0000E94D6000E94DB000E94E1000E949E
S1130470E8000E94C7000E94F4000E94FA000E9453
S1130480B200809110019091110101969093110195
S11304908093100150C00E94CA000E94D0000E94A4
S11304A0D6000E94DB000E94E1000E94E8000E9446
S11304B0EC000E94C7000E94FA000E94BA008091DA
S11304C010019091110101969093110180931001F4
S11304D032C00E94CA000E94D0000E94D6000E942E
S11304E0DB000E94E1000E94E8000E94EC000E94F0
S11304F0F4000E94C7000E94C000809110019091F6
S113050011010196909311018093100114C00E946F
S1130510FA000E94C7000E94CA000E94D0000E94F4
S1130520D6000E94DB000E94E1000E94E8000E94C5
S1130530EC000E94F400209110013091110180918F
S11305400001909101018217930724F41092110184
S11305501092100108951F920F920FB60F9211245A
S11305602F933F934F935F936F937F938F939F93B7
S1130570AF93BF93EF93FF9380910A0190910B0186
S1130580019690930B0180930A01823E944044F0BB
S113059095B182E0892785B910920B0110920A0166
S11305A082E091E00E94010180910C0190910D0183
S11305B0CC975CF010920D0110920C01E2E0F1E096
S11305C08681978101969783868380910801909113
S11305D009010A974CF0E2E0F1E017821682848167
S11305E095810196958384838091060190910701FA
S11305F0069789F48091080190910901892B59F497
S1130600E2E0F1E0158214821782168282819381DE
S113061001969383828380910401909105010A9746
S11306204CF0E2E0F1E01382128280819181019624
S11306309183808380910201909103010297C1F418
S11306408091040190910501049791F48091060131
S113065090910701892B61F480910801909109011F
S1130660892B31F4E2E0F1E01382128211821082CC
S113067080910E0190910F01019690930F01809348
S11306800E01823E94406CF080910C0190910D011A
S1130690019690930D0180930C0110920F0110921A
S11306A00E01FF91EF91BF91AF919F918F917F9137
S11306B06F915F914F913F912F910F900FBE0F90CB
S11306C01F901895EE0FFF1F0590F491E02D0994EB
S10706D0F894FFCFC8
S10D06D4030000000300040004000A
S9030000FC
