S0250000345F64696769745F736576656E5F7365676D656E745F646973706C61792E7372656334
S11300000C943E000C945B000C945B000C945B001D
S11300100C945B000C945B000C945B000C945B00F0
S11300200C945B000C945B000C945B000C94A90290
S11300300C945B000C945B000C945B000C945B00D0
S11300400C945B000C945B000C945B000C945B00C0
S11300500C945B000C945B000C945B000C945B00B0
S11300600C945B000C945B006702590177019501C5
S1130070B301D101EF010D022B02490211241FBE6D
S1130080CFEFD8E0DEBFCDBF11E0A0E0B1E0E6E9FC
S1130090F6E002C005900D92AA30B107D9F721E02D
S11300A0AAE0B1E001C01D92A431B207E1F70E94B9
S11300B05D000C9449030C940000509A519A529A92
S11300C0539A559A569A579A3D9A3C9A3A9A3B9A19
S11300D0399A229A389A409A429A2A9A449A459A84
S11300E0439A419A589859985A985B98E1E8F0E0F5
S11300F0808188608083AFE6B0E08C9182608C93CD
S1130100789480E293E090938900809388008081C2
S113011082608083FFCF459842980895439845981C
S113012044982A984098089543984598449842984A
S11301304098089541984498459842980895439862
S11301404198449842984098089543984198449817
S1130150429840982A98089543984598429808955B
S113016041984398459844982A984098429808950D
S113017041984398459844984298089541984398E3
S113018045982A98429840980895459A429A089525
S1130190439A459A449A2A9A409A0895439A459ACA
S11301A0449A429A409A0895419A449A459A429AA6
S11301B00895439A419A449A429A409A0895439AD8
S11301C0419A449A429A409A2A9A0895439A459A9F
S11301D0429A0895419A439A459A449A2A9A409A8F
S11301E0429A0895419A439A459A449A429A0895A4
S11301F0419A439A459A2A9A429A409A089540917C
S11302001001509111012091120130911301241712
S113021035070CF49DC120910E0130910F014091DE
S1130220000150910101421753070CF491C1232B93
S113023011F4589A01C0589820910E0130910F0181
S11302402130310511F4599A01C0599820910E01B9
S113025030910F012230310511F45A9A01C05A9895
S113026020910E0130910F012330310511F45B9A76
S113027001C05B98E0911001F0911101EE0FFF1F96
S1130280EE0FFF1FEE0FFF1FE80FF91F20910E0165
S113029030910F01220F331FE20FF31F0190F08101
S11302A0E02DEA30F10508F030C1EC5CFF4F0C940E
S11302B043030E94C8000E94CE000E94D4000E9402
S11302C0D9000E94DF000E94E6000E94EA000E941A
S11302D0F2000E94F8000E948B0080910E01909120
S11302E00F01019690930F0180930E0122C10E9489
S11302F0C5000E94CE000E94D4000E94D9000E9432
S1130300DF000E94E6000E94EA000E94F2000E94C0
S1130310F8000E948E0080910E0190910F010196C9
S113032090930F0180930E0104C10E94C8000E94A3
S1130330C5000E94D4000E94D9000E94DF000E94E0
S1130340E6000E94EA000E94F2000E94F8000E9467
S1130350940080910E0190910F01019690930F01EA
S113036080930E01E6C00E94C8000E94CE000E9445
S1130370C5000E94D9000E94DF000E94E6000E948E
S1130380EA000E94F2000E94F8000E949A00809104
S11303900E0190910F01019690930F0180930E012D
S11303A0C8C00E94C8000E94CE000E94D4000E94CF
S11303B0C5000E94DF000E94E6000E94EA000E943D
S11303C0F2000E94F8000E949F0080910E0190911B
S11303D00F01019690930F0180930E01AAC00E9411
S11303E0C8000E94CE000E94D4000E94D9000E943E
S11303F0C5000E94E6000E94EA000E94F2000E94EA
S1130400F8000E94A50080910E0190910F010196C1
S113041090930F0180930E018CC00E94C8000E942B
S1130420CE000E94D4000E94D9000E94DF000E94E6
S1130430C5000E94EA000E94F2000E94F8000E9497
S1130440AC0080910E0190910F01019690930F01E1
S113045080930E016EC00E94C8000E94CE000E94CC
S1130460D4000E94D9000E94DF000E94E6000E948E
S1130470C5000E94F2000E94F8000E94B000809122
S11304800E0190910F01019690930F0180930E013C
S113049050C00E94C8000E94CE000E94D4000E9456
S11304A0D9000E94DF000E94E6000E94EA000E9438
S11304B0C5000E94F8000E94B80080910E0190913E
S11304C00F01019690930F0180930E0132C00E9498
S11304D0C8000E94CE000E94D4000E94D9000E944D
S11304E0DF000E94E6000E94EA000E94F2000E94DF
S11304F0C5000E94BE0080910E0190910F010196EB
S113050090930F0180930E0114C00E94F8000E9482
S1130510C5000E94C8000E94CE000E94D4000E9420
S1130520D9000E94DF000E94E6000E94EA000E94B7
S1130530F20020910E0130910F0180910001909101
S113054001018217930724F410920F0110920E01F7
S113055008951F920F920FB60F9211242F933F9379
S11305604F935F936F937F938F939F93AF93BF93B7
S1130570EF93FF9382E091E00E94FF0080910801D5
S1130580909109010A974CF0E2E0F1E0178216829B
S1130590848195810196958384838091060190914D
S11305A00701069789F48091080190910901892B2C
S11305B059F4E2E0F1E015821482178216828281F6
S11305C09381019693838283809104019091050124
S11305D00A974CF0E2E0F1E013821282808191816B
S11305E00196918380838091020190910301029787
S11305F0C1F48091040190910501049791F48091D4
S1130600060190910701892B61F480910801909172
S11306100901892B31F4E2E0F1E0138212821182A4
S1130620108280910C0190910D01019690930D011F
S113063080930C0120910A0130910B012F5F3F4FF1
S113064030930B0120930A01823E94405CF0E2E077
S1130650F1E08681978101969783868310920D013C
S113066010920C01FF91EF91BF91AF919F918F91E7
S11306707F916F915F914F913F912F910F900FBE9A
S11306800F901F901895EE0FFF1F0590F491E02D29
S10906900994F894FFCF69
S10D06960300010003000500090041
S9030000FC
